:1000000046C000007FC000007DC000007BC0000033
:1000100079C0000077C0000075C0000073C0000008
:1000200071C000006FC000006DC000006BC0000018
:1000300069C0000067C0000065C0000063C0000028
:1000400061C000005FC000005DC000005BC0000038
:1000500059C0000057C0000055C0000053C0000048
:1000600051C000004FC000004DC000004BC0000058
:1000700049C0000001081020EE8276D69ADCFC868A
:10008000FEDE00FC30DA7A366EEE38FE7E00112499
:100090001FBECFEFD2E0DEBFCDBF89EB84B981ECCC
:1000A00085B980E887B980EF88B98FEF8AB91BB826
:1000B00083E687BD82E084BD83E085BD89E698E163
:1000C000909389008093880010928000E1E8F0E02E
:1000D00088E0808380818260808311E0A0E0B1E0CD
:1000E000E4EDF2E002C005900D92A430B107D9F71B
:1000F00011E0A4E0B1E001C01D92A630B107E1F724
:100100004DD0E6C07DCF9C016CE370E0CDD0482F90
:100110006AE0BED090930301842FBAD0809302018D
:10012000C9016CE370E0C0D0262F862F6AE0B0D002
:1001300090930101822FACD08093000108954091EB
:10014000040185B1867C85B98AEF90E00197F1F7CB
:1001500025B130910501832F90E0FC01EC58FF4F51
:10016000E491E22BE5B9FC01E050FF4F30FD06C001
:10017000E081F0E0E858FF4FE49105C0E081F0E055
:10018000ED57FF4FE491E42BEBB9333010F080E0F2
:1001900002C0832F8F5F809305010895CF92DF9275
:1001A000EF92FF920F931F93CF93DF93789410E019
:1001B000FF2400E0EE24DD24C0E1DEE082E0C82E72
:1001C00002C013E001E0A99B02C0B9DFC5BAB19B30
:1001D00016C0F00E87E28F1578F48F2D68E258D0A4
:1001E000C81BD1091C161D061CF013E0C0E0D0E0AE
:1001F0008F2D68E24DD0F92ECE0185DFC6BA86B1CB
:10020000D81619F0D82EEE2406C08AEF8E1510F4F9
:100210008D2D02C0E39480E01230D1F0133028F429
:10022000112369F1113079F605C01330F9F014305B
:1002300051F616C010930401282F30E0C9018076D2
:100240009070892B09F0BDCF24FFBCCF12E0BACF4C
:1002500086FF02C013E002C085FD14E00EE1B3CFBB
:1002600010920401479A10E000E0ADCF1092040113
:100270002F98479A10E000E0C0E0D0E0A4CF1E998C
:10028000A2CF2F9A479811E0FF24C0E1DEE09BCF78
:10029000991B79E004C0991F961708F0961B881FD8
:1002A0007A95C9F780950895AA1BBB1B51E107C039
:1002B000AA1FBB1FA617B70710F0A61BB70B881FF6
:1002C000991F5A95A9F780959095BC01CD01089585
:0402D000F894FFCFD0
:0402D4000A0A0A0AFE
:00000001FF
