:1000000012C03DC03CC03BC03AC039C0C9C037C0B7
:1000100036C035C034C0070B0D0EC0F9A4B099929C
:1000200082F88090FF0011241FBECFEDCDBF9FEF5F
:1000300097BB8EE088BB91BB12BA82E089BF86E095
:1000400082BF83E083BF88E09DE39BBD8ABD8BE0D8
:100050008EBD10E0A0E6B0E0E4E3F2E003C0C89596
:1000600031960D92A436B107D1F710E0A4E6B0E0C6
:1000700001C01D92AA36B107E1F75BD0D9C0C0CF4D
:10008000282F392F6CE370E0BDD0482F6AE0AED046
:1000900090936500842FAAD080936600822F932FBF
:1000A0006CE370E0AFD0262F862F6AE09FD090934C
:1000B0006700822F9BD08093680008959FE098BBD3
:1000C00080EF81BB92BB8DE08A95F1F790B39F7072
:1000D00080916400892B809364008FEF81BB089529
:1000E00080916100882311F490E101C090E088B311
:1000F00020916900A22FB0E0EA2FFB2FEA5EFF4FAC
:10010000C895E02D807E980FEF709E0F98BBAB597D
:10011000BF4FEC91F0E0E65EFF4FC895E02DE2BBEB
:10012000233010F0A0E002C0A22FAF5FA0936900BF
:100130000895FF920F931F93789410E080E4F82EB7
:1001400002E008B606FE12C080916200180F183057
:1001500040F080916000882319F081508093600006
:1001600010E08091600090E08BDFF8BE8091640029
:10017000882339F390E0282F392F2C7030702C30E1
:10018000310519F410926000DCCF837090700397F2
:1001900011F41EBCD6CF232BA1F200936200D1CF65
:1001A0001F920F920FB60F9211242F933F934F93EC
:1001B0005F936F937F938F939F93AF93BF93EF93CF
:1001C000FF937CDF8DDF86E082BFFF91EF91BF91CF
:1001D000AF919F918F917F916F915F914F913F91DF
:1001E0002F910F900FBE0F901F901895991B79E0DB
:1001F00004C0991F961708F0961B881F7A95C9F7B7
:1002000080950895AA1BBB1B51E107C0AA1FBB1F05
:10021000A617B70710F0A61BB70B881F991F5A9592
:10022000A9F780959095682F792F8A2F9B2F089595
:04023000F894FFCF70
:04023400780101004C
:00000001FF
