:1000000046C000007FC000007DC000007BC0000033
:1000100079C0000077C0000075C0000073C0000008
:1000200071C000006FC000006DC000006BC0000018
:1000300069C0000067C0000065C0000063C0000028
:1000400061C000005FC000005DC000005BC0000038
:1000500059C0000057C0000055C0000053C0000048
:1000600051C000004FC000004DC000004BC0000058
:1000700049C0000001081020EE8276D69ADCFC868A
:10008000FEDE00FC30DA7A366EEE38FE7E00112499
:100090001FBECFEFD2E0DEBFCDBF89EB84B981ECCC
:1000A00085B980E887B980EF88B98FEF8AB91BB826
:1000B00083E687BD82E084BD83E085BD81E19AE768
:1000C000909389008093880010928000E1E8F0E02E
:1000D00088E0808380818260808311E0A0E0B1E0CD
:1000E000EEEBF2E002C005900D92A430B107D9F713
:1000F00011E0A4E0B1E001C01D92A630B107E1F724
:100100004DD0DBC07DCF9C016CE370E0C2D0482FA6
:100110006AE0B3D090930301842FAFD080930201A3
:10012000C9016CE370E0B5D0262F862F6AE0A5D018
:1001300090930101822FA1D08093000108954091F6
:10014000040185B1867C85B98AEF90E00197F1F7CB
:1001500025B130910501832F90E0FC01EC58FF4F51
:10016000E491E22BE5B9FC01E050FF4F30FD06C001
:10017000E081F0E0E858FF4FE49105C0E081F0E055
:10018000ED57FF4FE491E42BEBB9333010F080E0F2
:1001900002C0832F8F5F809305010895CF92DF9275
:1001A000EF92FF920F931F93CF93DF93789410E019
:1001B000FF2400E0EE24DD24C0E1DEE082E0C82E72
:1001C00004C013E039C013E00AE0A99B02C0B7DF06
:1001D000C5BAB19B0BC0F00E87E08F1520F42097B5
:1001E00009F02197FF24CE018EDFC6BA86B1D8165A
:1001F00019F0D82EEE2406C08AEF8E1510F48D2D3E
:1002000002C0E39480E01230C9F0133028F41123C7
:1002100059F11130D1F605C01330F1F01430A9F6C0
:1002200015C010930401282F30E0C901807690702A
:10023000892B39F624FD12E001E0C7CF86FDC3CF3C
:1002400084FFC1CF85FFC0CF14E0BECF1092040160
:10025000479810E000E0B9CF109204012F9810E009
:1002600000E0C0E0D0E0B1CF1E99AFCF2F9A479AFF
:1002700011E0FF24C0E1DEE0A8CF991B79E004C0C3
:10028000991F961708F0961B881F7A95C9F78095D5
:100290000895AA1BBB1B51E107C0AA1FBB1FA617CD
:1002A000B70710F0A61BB70B881F991F5A95A9F71F
:0E02B00080959095BC01CD010895F894FFCF84
:0402BE000A0A0A0A14
:00000001FF
