:1000000046C000007FC000007DC000007BC0000033
:1000100079C0000077C0000075C0000073C0000008
:1000200071C000006FC000006DC000006BC0000018
:1000300069C0000067C0000065C0000063C0000028
:1000400061C000005FC000005DC000005BC0000038
:1000500059C0000057C0000055C0000053C0000048
:1000600051C000004FC000004DC000004BC0000058
:1000700049C0000001081020EE8276D69ADCFC868A
:10008000FEDE00FC30DA7A366EEE38FE7E00112499
:100090001FBECFEFD2E0DEBFCDBF89EB84B981ECCC
:1000A00085B980E887B980EF88B98FEF8AB91BB826
:1000B00083E687BD82E084BD83E085BD81E19AE768
:1000C000909389008093880010928000E1E8F0E02E
:1000D00088E0808380818260808311E0A0E0B1E0CD
:1000E000EAE9F2E002C005900D92A430B107D9F719
:1000F00011E0A4E0B1E001C01D92A630B107E1F724
:100100004DD0C9C07DCF9C016CE370E0B0D0482FCA
:100110006AE0A1D090930301842F9DD080930201C7
:10012000C9016CE370E0A3D0262F862F6AE093D03C
:1001300090930101822F8FD0809300010895409108
:10014000040185B1867C85B98AEF90E00197F1F7CB
:1001500025B130910501832F90E0FC01EC58FF4F51
:10016000E491E22BE5B9FC01E050FF4F30FD06C001
:10017000E081F0E0E858FF4FE49105C0E081F0E055
:10018000ED57FF4FE491E42BEBB9333010F080E0F2
:1001900002C0832F8F5F809305010895DF92EF9255
:1001A000FF920F931F93CF93DF93789410E0FF2477
:1001B00000E0C0E1DEE082E0E82EDD24D39402C05E
:1001C00013E001E0A99B02C0BADFE5BAB19B0BC006
:1001D000F00E87E08F1520F4209709F02197FF2477
:1001E000CE0191DFE6BA1230C1F0133028F41123AA
:1001F00039F1113039F705C01330E1F0143011F73F
:1002000015C086B1282F30E0C90180769070892B07
:10021000B9F624FFD6CF12E0D4CF86B186FF02C054
:1002200013E002C085FD14E00AE0CCCF479810E04F
:1002300000E0C8CF2F9810E000E0C0E0D0E0C2CFCF
:100240001E99C0CFD09204012F9A479A11E0FF2443
:10025000C0E1DEE0B7CF991B79E004C0991F961783
:1002600008F0961B881F7A95C9F780950895AA1BF8
:10027000BB1B51E107C0AA1FBB1FA617B70710F091
:10028000A61BB70B881F991F5A95A9F780959095C3
:0A029000BC01CD010895F894FFCFE2
:04029A000A0A0A0A38
:00000001FF
