:100000000C9447000C9484000C9484000C9484009D
:100010000C9484000C9484000C9484000C94840050
:100020000C9484000C9484000C9484000C94840040
:100030000C9484000C9484000C9484000C94840030
:100040000C9484000C9484000C9484000C94840020
:100050000C9484000C9484000C9484000C94840010
:100060000C9484000C9484000C9484000C94840000
:100070000C94840001081020EE8276D69ADCFC866F
:10008000FEDE00FC30DA7A366EEE38FE7E00112499
:100090001FBECFEFD2E0DEBFCDBF89EB84B981E4D4
:1000A00085B980E887B980EF88B98FEF8AB91BB826
:1000B00083E687BD82E084BD83E085BD89E698E163
:1000C000909389008093880010928000E1E8F0E02E
:1000D00088E0808380818260808311E0A0E0B1E0CD
:1000E000ECEEF2E002C005900D92A430B107D9F712
:1000F00011E0A4E0B1E001C01D92A630B107E1F724
:100100000E94D7000C9474010C9400009C016CE3D5
:1001100070E00E946001482F6AE00E9454019093B1
:100120000301842F0E94540180930201C9016CE3F2
:1001300070E00E946001262F862F6AE00E94540121
:1001400090930101822F0E94540180930001089531
:100150004091040185B1867C85B98AEF90E00197D2
:10016000F1F725B130910501832F90E0FC01EC58A7
:10017000FF4FE491E22BE5B9FC01E050FF4F30FD69
:1001800006C0E081F0E0E858FF4FE49105C0E0814F
:10019000F0E0ED57FF4FE491E42BEBB9333010F072
:1001A00080E002C0832F8F5F809305010895CF9276
:1001B000DF92EF92FF920F931F93CF93DF93789488
:1001C00010E0FF2400E0EE24DD24C0E1DEE082E068
:1001D000C82E02C013E001E0A99B03C00E94A80042
:1001E000C5BAB19B19C0F00E87E28F1588F48F2D28
:1001F00068E20E945401C81BD1091C161D061CF0A0
:1002000013E0C0E0D0E08F2D68E20E945401F92E87
:10021000CE010E948600C6BA86B1D81619F0D82E33
:10022000EE2406C08AEF8E1510F48D2D02C0E394E3
:1002300080E01230D1F0133028F4112361F1113035
:1002400059F605C01330F9F0143031F616C010938A
:100250000401282F30E0C90180769070892B09F0C5
:10026000B9CF24FFB8CF12E0B6CF86FF02C013E0AB
:1002700002C085FD14E00EE1AFCF10920401479853
:1002800010E000E0A9CF109204012F9A10E000E0E6
:10029000C0E0D0E0A1CF1E999FCF2F98479A11E0E0
:1002A000FF24C0E1DEE098CF991B79E004C0991FDC
:1002B000961708F0961B881F7A95C9F780950895C0
:1002C000AA1BBB1B51E107C0AA1FBB1FA617B7077C
:1002D00010F0A61BB70B881F991F5A95A9F7809598
:0C02E0009095BC01CD010895F894FFCF6B
:0402EC000A0A0A0AE6
:00000001FF
