:1000000046C000007FC000007DC000007BC0000033
:1000100079C0000077C0000075C0000073C0000008
:1000200071C000006FC000006DC000006BC0000018
:1000300069C0000067C0000065C0000063C0000028
:1000400061C000005FC000005DC000005BC0000038
:1000500059C0000057C0000055C0000053C0000048
:1000600051C000004FC000004DC000004BC0000058
:1000700049C0000001081020EE8276D69ADCFC868A
:10008000FEDE00FC30DA7A366EEE38FE7E00112499
:100090001FBECFEFD2E0DEBFCDBF89EB84B981ECCC
:1000A00085B980E887B980EF88B98FEF8AB91BB826
:1000B00083E687BD82E084BD83E085BD89E698E163
:1000C000909389008093880010928000E1E8F0E02E
:1000D00088E0808380818260808311E0A0E0B1E0CD
:1000E000E0E5F3E002C005900D92A430B107D9F726
:1000F00011E0A4E0B1E001C01D92A930B107E1F721
:1001000056D024C17DCF882319F08093080108952B
:1001100080910701882329F0219A8150809307015B
:10012000089580910601882329F0219881508093B9
:100130000601089580910801882349F08150809339
:10014000080183E08093070186E08093060108950B
:100150004091040185B1867C85B98AEF90E00197D2
:10016000F1F725B130910501832F90E0FC01EC58A7
:10017000FF4FE491E22BE5B9FC01E050FF4F30FD69
:1001800006C0E081F0E0E858FF4FE49105C0E0814F
:10019000F0E0ED57FF4FE491E42BEBB9333010F072
:1001A00080E002C0832F8F5F8093050108959F92A6
:1001B000AF92BF92CF92DF92EF92FF920F931F9375
:1001C000CF93DF93789410E0FF2400E0DD24EE2449
:1001D000CC24C0E1DEE092E0992E82E3A82EB12C7F
:1001E000A99B5FC0B5DF86B1C81619F0C82EDD2403
:1001F00006C08AE08D1510F48C2D02C0D39480E0E7
:100200001230E9F0133030F4112391F1113009F07C
:1002100047C006C0133011F1143009F041C017C0B7
:1002200010930401282F30E0C90180769070892B4B
:1002300011F013E002C024FD12E001E031C086FF9E
:1002400002C013E002C085FD14E00EE129C0109247
:10025000040181E058DF10E000E022C010920401A8
:10026000479A82E050DF10E000E0C0E0D0E018C024
:100270001E9B02C0EE2414C08AE08E1510F0E39499
:100280000FC047982F9A80ED97E0F5013197F1F76D
:100290000197D9F72F9811E0FF24EE24C0E1DEE0AA
:1002A00095BAB19B9DCFF00E87E28F1580F48F2D0C
:1002B00068E22CD0C81BD1091C161D0624F01111B0
:1002C00013E0C0E0D0E08F2D68E220D0F92E80E06E
:1002D0001ADFCE016CE370E025D0282F6AE016D03B
:1002E00090930301822F12D080930201CE016CE320
:1002F00070E018D0262F862F6AE008D09093010175
:10030000822F04D08093000196BA6ACF991B79E0BE
:1003100004C0991F961708F0961B881F7A95C9F795
:1003200080950895AA1BBB1B51E107C0AA1FBB1FE4
:10033000A617B70710F0A61BB70B881F991F5A9571
:10034000A9F780959095BC01CD010895F894FFCF51
:040350000A0A0A0A81
:00000001FF
