:1000000046C000007FC000007DC000007BC0000033
:1000100079C0000077C0000075C0000073C0000008
:1000200071C000006FC000006DC000006BC0000018
:1000300069C0000067C0000065C0000063C0000028
:1000400061C000005FC000005DC000005BC0000038
:1000500059C0000057C0000055C0000053C0000048
:1000600051C000004FC000004DC000004BC0000058
:1000700049C0000001081020EE8276D69ADCFC868A
:10008000FEDE00FC30DA7A366EEE38FE7E00112499
:100090001FBECFEFD2E0DEBFCDBF89EB84B981ECCC
:1000A00085B980E887B980EF88B98FEF8AB91BB826
:1000B00083E687BD82E084BD83E085BD89E698E163
:1000C000909389008093880010928000E1E8F0E02E
:1000D00088E0808380818260808311E0A0E0B1E0CD
:1000E000E8EBF3E002C005900D92A430B107D9F718
:1000F00011E0A4E0B1E001C01D92A930B107E1F721
:1001000056D058C17DCF882319F0809308010895F7
:1001100080910701882329F0219A8150809307015B
:10012000089580910601882329F0219881508093B9
:100130000601089590910801992349F083E0809386
:10014000070182E080930601915090930801089581
:100150004091040185B1867C85B98AEF90E00197D2
:10016000F1F725B130910501832F90E0FC01EC58A7
:10017000FF4FE491E22BE5B9FC01E050FF4F30FD69
:1001800006C0E081F0E0E858FF4FE49105C0E0814F
:10019000F0E0ED57FF4FE491E42BEBB9333010F072
:1001A00080E002C0832F8F5F8093050108957F92C6
:1001B0008F929F92AF92BF92CF92DF92EF92FF9277
:1001C0000F931F93CF93DF93789410E08824DD245E
:1001D00000E0AA24BB249924C0E1DEE0EE24FF2441
:1001E000CC2452E0752EA99B88C0B2DF86B1981648
:1001F00019F0982EAA2406C084E18A1510F4992DCE
:1002000002C0A39490E0CC2009F076C0133059F1DD
:10021000143030F4113009F455C0123088F458C04D
:10022000153049F0153008F443C0163039F1173055
:1002300009F062C035C016E040E5E42EF12C5CC048
:1002400081E080930401292F30E0C901807690700D
:10025000892B11F014E005C024FF03C015E032E043
:10026000832E01E049C096FF02C014E005C095FF4F
:1002700003C015E023E0822E0EE13EC0292F30E0BE
:10028000C90180769070892B11F014E035C024FDEF
:1002900002C0182D31C0E114F10471F517E02CC033
:1002A00010920401479A81E02EDF10E000E024C0A4
:1002B00010920401479A82E026DF10E000E0C0E0DF
:1002C000D0E01AC02F9812E001E090E5C92E14C0CA
:1002D0001E9B02C0BB2410C084E18B1510F0B394A8
:1002E0000BC0907749F42F9A479811E0DD24BB2486
:1002F000C0E1DEE08AE0C82E75BAB19B74CFD00EA3
:1003000087E28D1580F48D2D68E234D0C81BD109A9
:100310001C161D0624F0111114E0C0E0D0E08D2D54
:1003200068E228D0D92EE114F10419F00894E1080C
:10033000F108C110CA9480E0E6DECE016CE370E003
:1003400025D0282F6AE016D090930301822F12D077
:1003500080930201CE016CE370E018D0262F862F27
:100360006AE008D090930101822F04D080930001AD
:1003700076BA39CF991B79E004C0991F961708F017
:10038000961B881F7A95C9F780950895AA1BBB1BF9
:1003900051E107C0AA1FBB1FA617B70710F0A61B85
:1003A000B70B881F991F5A95A9F780959095BC01A6
:0803B000CD010895F894FFCF80
:0403B8000A0A0A0A19
:00000001FF
