:1000000046C000007FC000007DC000007BC0000033
:1000100079C0000077C0000075C0000073C0000008
:1000200071C000006FC000006DC000006BC0000018
:1000300069C0000067C0000065C0000063C0000028
:1000400061C000005FC000005DC000005BC0000038
:1000500059C0000057C0000055C0000053C0000048
:1000600051C000004FC000004DC000004BC0000058
:1000700049C0000001081020EE8276D69ADCFC868A
:10008000FEDE00FC30DA7A366EEE38FE7E00112499
:100090001FBECFEFD2E0DEBFCDBF89EB84B981ECCC
:1000A00085B980E887B980EF88B98FEF8AB91BB826
:1000B00083E687BD82E084BD83E085BD89E698E163
:1000C000909389008093880010928000E1E8F0E02E
:1000D00088E0808380818260808311E0A0E0B1E0CD
:1000E000E4EEF2E002C005900D92A430B107D9F71A
:1000F00011E0A4E0B1E001C01D92A630B107E1F724
:100100004DD0EEC07DCF9C016CE370E0D5D0482F80
:100110006AE0C6D090930301842FC2D0809302017D
:10012000C9016CE370E0C8D0262F862F6AE0B8D0F2
:1001300090930101822FB4D08093000108954091E3
:10014000040185B1867C85B98AEF90E00197F1F7CB
:1001500025B130910501832F90E0FC01EC58FF4F51
:10016000E491E22BE5B9FC01E050FF4F30FD06C001
:10017000E081F0E0E858FF4FE49105C0E081F0E055
:10018000ED57FF4FE491E42BEBB9333010F080E0F2
:1001900002C0832F8F5F809305010895BF92CF9295
:1001A000DF92EF92FF920F931F93CF93DF93789498
:1001B00010E0FF2400E0DD24EE24CC24C0E1DEE0EA
:1001C00082E0B82EA99B53C0BADF86B1C81619F0D9
:1001D000C82EDD2406C08AE08D1510F48C2D02C0D7
:1001E000D39480E01230D9F0133028F4112371F148
:1001F0001130E1F505C0133001F11430B9F517C025
:1002000010930401282F30E0C90180769070892B6B
:1002100011F013E002C024FD12E001E027C086FFC8
:1002200002C013E002C085FD14E00EE11FC0109271
:100230000401479A10E000E019C0109204012F98C1
:10024000479A10E000E0C0E0D0E010C01E9B02C062
:10025000EE240CC08AE08E1510F0E39407C02F9AAC
:10026000479811E0FF24EE24C0E1DEE0B5BAB19B6F
:10027000A9CFF00E87E28F1578F48F2D68E210D0A9
:10028000C81BD1091C161D061CF013E0C0E0D0E00D
:100290008F2D68E205D0F92ECE0135DFB6BA92CFA8
:1002A000991B79E004C0991F961708F0961B881FC8
:1002B0007A95C9F780950895AA1BBB1B51E107C029
:1002C000AA1FBB1FA617B70710F0A61BB70B881FE6
:1002D000991F5A95A9F780959095BC01CD01089575
:0402E000F894FFCFC0
:0402E4000A0A0A0AEE
:00000001FF
