:1000000046C000007FC000007DC000007BC0000033
:1000100079C0000077C0000075C0000073C0000008
:1000200071C000006FC000006DC000006BC0000018
:1000300069C0000067C0000065C0000063C0000028
:1000400061C000005FC000005DC000005BC0000038
:1000500059C0000057C0000055C0000053C0000048
:1000600051C000004FC000004DC000004BC0000058
:1000700049C0000001081020EE8276D69ADCFC868A
:10008000FEDE00FC30DA7A366EEE38FE7E00112499
:100090001FBECFEFD2E0DEBFCDBF89EB84B981ECCC
:1000A00085B980E887B980EF88B98FEF8AB91BB826
:1000B00083E687BD82E084BD83E085BD89E698E163
:1000C000909389008093880010928000E1E8F0E02E
:1000D00088E0808380818260808311E0A0E0B1E0CD
:1000E000E6E6F3E002C005900D92A430B107D9F71F
:1000F00011E0A4E0B1E001C01D92A930B107E1F721
:1001000056D02FC17DCF882319F080930801089520
:1001100080910701882329F0219A8150809307015B
:10012000089580910601882329F0219881508093B9
:100130000601089590910801992349F083E0809386
:10014000070182E080930601915090930801089581
:100150004091040185B1867C85B98AEF90E00197D2
:10016000F1F725B130910501832F90E0FC01EC58A7
:10017000FF4FE491E22BE5B9FC01E050FF4F30FD69
:1001800006C0E081F0E0E858FF4FE49105C0E0814F
:10019000F0E0ED57FF4FE491E42BEBB9333010F072
:1001A00080E002C0832F8F5F8093050108959F92A6
:1001B000AF92BF92CF92DF92EF92FF920F931F9375
:1001C000CF93DF93789410E0FF2400E0CC24DD246B
:1001D000BB24C0E1DEE0EE2422E0A22E9924939419
:1001E000A99B68C0B5DF86B1B81619F0B82ECC242B
:1001F00006C084E18C1510F48B2D02C0C39480E0FE
:10020000EE2009F056C0123089F0133038F4112373
:1002100009F43BC0113009F04CC031C0143029F151
:10022000143098F0153009F044C017C090920401C2
:10023000282F30E0C90180769070892B11F014E0EE
:1002400002C024FD13E001E034C086FF02C014E0C8
:1002500002C085FD15E00EE12CC010920401479A02
:1002600081E051DF10E000E024C010920401479AC1
:1002700082E049DF10E000E0C0E0D0E01AC02F9833
:1002800012E001E090E5E92E14C01E9B02C0DD24BF
:1002900010C094E19D1510F0D3940BC0807749F401
:1002A0002F9A479811E0FF24DD24C0E1DEE08AE0C8
:1002B000E82EA5BAB19B94CFF00E87E28F1580F49B
:1002C0008F2D68E22ED0C81BD1091C161D0624F004
:1002D000111114E0C0E0D0E08F2D68E222D0F92E99
:1002E000E110EA9480E00FDFCE016CE370E025D0EE
:1002F000282F6AE016D090930301822F12D08093AA
:100300000201CE016CE370E018D0262F862F6AE040
:1003100008D090930101822F04D080930001A6BAE7
:100320005FCF991B79E004C0991F961708F0961BC0
:10033000881F7A95C9F780950895AA1BBB1B51E1C8
:1003400007C0AA1FBB1FA617B70710F0A61BB70B45
:10035000881F991F5A95A9F780959095BC01CD01EA
:060360000895F894FFCFA0
:040366000A0A0A0A6B
:00000001FF
